:100000000C941F030C9447030C9447030C94470370
:100010000C9447030C9447030C9447030C94E50C91
:100020000C9447030C9447030C9447030C94470328
:100030000C9447030C9447030C9447030C94470318
:100040000C94990D0C9447030C94670D0C94410D7E
:100050000C9447030C9447030C9447030C944703F8
:100060000C9447030C9447035363616E6E656420E0
:10007000504943432773205549443A00000000008B
:1000800023002600290000000008000201000003F0
:100090000407000000000000000000000000240031
:1000A00027002A0053595354454D2048414C54458C
:1000B000443A20436865636B20636F6E6E656374BA
:1000C000696F6E732E005741524E494E473A204396
:1000D0006F6D6D756E69636174696F6E20666169BD
:1000E0006C7572652C20697320746865204D4652CA
:1000F000433532322070726F7065726C7920636F95
:100100006E6E65637465643F002028756E6B6E6F5C
:10011000776E292C70726F6261626C792061206346
:1001200068696E65736520636C6F6E653F00203D86
:100130002076322E3000203D2076312E30004D4684
:10014000524335323220536F6674776172652056A0
:10015000657273696F6E3A2030780057616974690F
:100160006E6720504943437320746F20626520738B
:1001700063616E6E65640045766572797468696E58
:1001800067206973207265616479002D2D2D2D2DF6
:100190002D2D2D2D2D2D2D2D2D2D2D2D2D2D004D9C
:1001A00061737465722043617264277320554944FA
:1001B000002D2D2D2D2D2D2D2D2D2D2D2D2D2D2D9C
:1001C0002D2D2D2D004D6173746572204361726475
:1001D00020446566696E6564005363616E2041204A
:1001E0005049434320746F20446566696E65206101
:1001F00073204D61737465722043617264004E6FA9
:10020000204D617374657220436172642044656699
:10021000696E656400454550524F4D2053756363C8
:1002200065737366756C6C792057697065640057E7
:100230006970696E672043616E63656C6C6564000C
:100240005374617274696E6720576970696E6720B4
:10025000454550524F4D00546869732077696C6C66
:100260002062652072656D6F766520616C6C20720E
:1002700065636F72647320616E642063616E6E6F7C
:100280007420626520756E646F6E6500596F75200D
:1002900068617665203130207365636F6E6473200A
:1002A000746F2043616E63656C005769706520420E
:1002B0007574746F6E20507265737365640041636A
:1002C0006365737320436F6E74726F6C2045786141
:1002D0006D706C652076302E3100537563636573E5
:1002E00066756C6C792072656D6F76656420494423
:1002F000207265636F72642066726F6D2045455091
:10030000524F4D004661696C6564212054686572E6
:100310006520697320736F6D657468696E672077F7
:10032000726F6E672077697468204944206F72206D
:1003300062616420454550524F4D005375636365BB
:100340007366756C6C79206164646564204944202F
:100350007265636F726420746F20454550524F4D33
:10036000004661696C656421205468657265206986
:100370007320736F6D657468696E672077726F6E36
:10038000672077697468204944206F722062616435
:1003900020454550524F4D00596F75207368616C70
:1003A0006C206E6F7420706173730057656C636F9F
:1003B0006D652C20596F75207368616C6C207061BD
:1003C0007373002D2D2D2D2D2D2D2D2D2D2D2D2DFE
:1003D0002D2D2D2D2D2D2D2D2D2D2D2D2D2D2D2D4D
:1003E000005363616E204D617374657220436172C6
:1003F0006420616761696E20746F2045786974209C
:1004000050726F6772616D204D6F64650053636158
:100410006E2061205049434320746F2041444420A2
:100420006F722052454D4F564520746F2045455000
:10043000524F4D00207265636F7264287329206FDC
:100440006E20454550524F4D004920686176652029
:100450000048656C6C6F204D6173746572202D20AF
:10046000456E74657265642050726F6772616D20AD
:100470004D6F6465005363616E20612050494343B2
:1004800020746F20414444206F722052454D4F56D6
:100490004520746F20454550524F4D002D2D2D2D78
:1004A0002D2D2D2D2D2D2D2D2D2D2D2D2D2D2D2D7C
:1004B0002D2D2D2D2D2D2D2D2D004920646F206EDD
:1004C0006F74206B6E6F7720746869732050494396
:1004D000432C20616464696E672E2E2E0053636185
:1004E0006E2061205049434320746F2041444420D2
:1004F0006F722052454D4F564520746F2045455030
:10050000524F4D0049206B6E6F77207468697320DD
:10051000504943432C2072656D6F76696E672E2EAD
:100520002E002D2D2D2D2D2D2D2D2D2D2D2D2D2D27
:100530002D2D2D2D2D2D2D2D2D2D2D2D2D2D2D0018
:1005400045786974696E672050726F6772616D20BB
:100550004D6F6465004D6173746572204361726410
:10056000205363616E6E6564004D61737465722023
:10057000436172642045726173652043616E6365F7
:100580006C6C656400506C656173652072657365A1
:100590007420746F2072652D70726F6772616D20A8
:1005A0004D61737465722043617264004D617374B0
:1005B00065722043617264204572617365642066D0
:1005C000726F6D20646576696365004D6173746553
:1005D0007220436172642077696C6C2062652045EB
:1005E00072617365642120696E2031302073656308
:1005F0006F6E6473005769706520427574746F6E16
:100600002050726573736564000102040810204075
:1006100080010204081020010204081020000000DC
:1006200000250028002B0004040404040404040230
:10063000020202020203030303030302E30D112477
:100640001FBECFEFD8E0DEBFCDBF11E0A0E0B1E02C
:10065000EAEDF6E202C005900D92AE33B107D9F78C
:1006600022E0AEE3B1E001C01D92A531B207E1F78F
:1006700013E0CFE1D3E004C02197FE010E9465138F
:10068000CE31D107C9F70E941A0E0C946B130C944B
:1006900000008CBD9DBD0895282F809152018823B4
:1006A00019F081E08093560180915601A2E5B1E0F6
:1006B000E22FF92F9F012C5F3F4F4D9191914913EC
:1006C00080E0E217F307C9F7809356010895AF92CF
:1006D000BF92CF92DF92EF92FF920F931F93CF932F
:1006E000DF936C017B018B01040F151FEB015E0191
:1006F000AE18BF08C017D10759F06991D601ED9126
:10070000FC910190F081E02DC6010995892B79F7C4
:10071000C501DF91CF911F910F91FF90EF90DF9076
:10072000CF90BF90AF900895FC01538D448D252F3D
:1007300030E0842F90E0821B930B541710F0CF967B
:10074000089501970895FC01918D828D981761F0AD
:10075000A28DAE0FBF2FB11D5D968C91928D9F5FC4
:100760009F73928F90E008958FEF9FEF0895FC01A3
:10077000918D828D981731F0828DE80FF11D858D56
:1007800090E008958FEF9FEF0895FC01918D228DE9
:10079000892F90E0805C9F4F821B91098F7399276E
:1007A000089588E691E00E94C50321E0892B09F4B1
:1007B00020E0822F089580E090E0892B29F00E94AC
:1007C000D10381110C9400000895FC01A48DA80FA1
:1007D000B92FB11DA35ABF4F2C91848D90E0019683
:1007E0008F739927848FA689B7892C93A089B189A3
:1007F0008C91837080648C93938D848D981306C044
:100800000288F389E02D80818F7D80830895EF92A7
:10081000FF920F931F93CF93DF93EC0181E0888FBA
:100820009B8D8C8D98131AC0E889F989808185FF8A
:1008300015C09FB7F894EE89FF896083E889F9892C
:1008400080818370806480839FBF81E090E0DF912E
:10085000CF911F910F91FF90EF900895F62E0B8D81
:1008600010E00F5F1F4F0F731127E02E8C8D8E113C
:100870000CC00FB607FCFACFE889F989808185FFA3
:10088000F5CFCE010E94E503F1CFEB8DEC0FFD2FEC
:10089000F11DE35AFF4FF0829FB7F8940B8FEA895E
:1008A000FB8980818062CFCF0F931F93CF93DF931B
:1008B0008C01D0E0C0E0F801EC0FFD1F64916623CD
:1008C00041F088E691E00E940704892B11F02196FF
:1008D000F2CFCE01DF91CF911F910F910895CF9369
:1008E000DF93EC01888D8823B9F0AA89BB89E88958
:1008F000F9898C9185FD03C0808186FD0DC00FB6FE
:1009000007FCF7CF8C9185FFF2CF808185FFEDCF7B
:10091000CE010E94E503E9CFDF91CF9108958330A6
:1009200081F028F4813099F08230A9F00895873061
:10093000A9F08830C9F08430B1F4809180008F7DB7
:1009400003C0809180008F7780938000089584B5E4
:100950008F7784BD089584B58F7DFBCF8091B000E3
:100960008F778093B00008958091B0008F7DF9CF8C
:10097000CF93DF93282F30E0F901EA57FF4F84919E
:10098000F901E75FF94FD491F901E95DF94FC4919D
:10099000CC23A1F081110E948F04EC2FF0E0EE0F28
:1009A000FF1FE458FF4FA591B491EC91ED2381E036
:1009B00090E009F480E0DF91CF91089580E090E02D
:1009C000FACF8F929F92AF92BF92CF92DF92EF9227
:1009D000FF928FB7F894C0904A01D0904B01E090FD
:1009E0004C01F0904D018FBF84EF882E9924939491
:1009F000A12CB12C2FB7F89480914A0190914B0112
:100A0000A0914C01B0914D012FBF8C199D09AE09E9
:100A1000BF0980319742A105B10510F52FB7F894B1
:100A200060914A0170914B0180914C0190914D0170
:100A30002FBFA50194010E942413672B682B692BFB
:100A4000C9F684E00E94B804892BA1F280E0FF90EF
:100A5000EF90DF90CF90BF90AF909F908F900895D0
:100A600081E0F5CF1F93CF93DF93282F30E0F9017A
:100A7000EA57FF4F8491F901E75FF94FD491F901EB
:100A8000E95DF94FC491CC23A9F0162F81110E9482
:100A90008F04EC2FF0E0EE0FFF1FE35EF94FA591FE
:100AA000B4918FB7F894EC91111108C0D095DE2362
:100AB000DC938FBFDF91CF911F910895DE2BF8CF8C
:100AC0009091000189130BC0EBE3F6E0E4919FEFF6
:100AD00090930001E13049F028F0E23061F060E0ED
:100AE0000C94320510926E00FACF90916F009D7FAA
:100AF00090936F00F4CF909170009D7F9093700061
:100B000091E09093B0009091B100987F94609093A1
:100B1000B1001092B300E3CFCF93DF9390E0FC01DC
:100B2000E75FF94F2491895D994FFC0184918823F7
:100B3000C9F090E0880F991FFC01E656FF4FA59180
:100B4000B491FC01E35EF94FC591D49161110DC0E0
:100B50009FB7F8948C91209582238C9388812823C9
:100B600028839FBFDF91CF910895623051F49FB7E2
:100B7000F8943C91822F809583238C93E8812E2BCF
:100B8000EFCF8FB7F894EC912E2B2C938FBFEACF39
:100B9000CF92DF92EF92FF92CF936C018091000190
:100BA000823149F08F3F09F453C0CF91FF90EF900D
:100BB000DF90CF900895EBE3F6E0C491C7FDF5CF49
:100BC00061E082E10E948C05CC2319F0C23009F06B
:100BD000EFC0F12CE12C60E472E48FE090E0A7011B
:100BE00096010E944613BA01A901415051096109B9
:100BF0007109C23009F09BC04F3F51056105710575
:100C000009F00CF4B0C060E970ED83E090E0A7015A
:100C100096010E944613BA01A90141505109610988
:100C2000710983E04F3F51056105710509F008F432
:100C30009BC068E478EE81E090E0A70196010E94F5
:100C40004613BA01A901415051096109710986C0D1
:100C500082E180930001EBE3F6E0C491CF3F09F419
:100C6000A4CFC13021F150F0C23009F43EC0C7FD1D
:100C70009CCF61E082E10E948C05A8CF14BC15BC1A
:100C800084B5826084BD85B5816085BDE9E3F6E009
:100C9000E491F0E0EE0FFF1FE35EF94F8591949130
:100CA000EBE1F6E0E491E0935B01C0E089CF1092C4
:100CB0008000109281008091810088608093810083
:100CC00080918100816080938100E9E3F6E0E49106
:100CD000F0E0EE0FFF1FE35EF94F85919491EBE199
:100CE000F6E0E491E0935A016BCF1092B0001092BD
:100CF000B1008091B00082608093B0008091B1001B
:100D000081608093B100E9E3F6E0E491F0E0EE0F5A
:100D1000FF1FE35EF94F8591949190935901809361
:100D20005801EBE1F6E0E491E093570149CF4F3FE2
:100D3000510561057105A1F098F068E478EE81E055
:100D400090E0A70196010E944613BA01A901415003
:100D500051096109710993E0CC23A1F084E004C03A
:100D600092E0CC2379F082E09091B100987F892BBA
:100D70008093B100C13099F1C23009F445C0C1116E
:100D800014CF04C085B5887F892B85BD47BD8FEF03
:100D90009FEFDC018093640190936501A09366014D
:100DA000B093670180916E00826080936E00FDCEEB
:100DB000960150E040E060E072E18AE790E00E9436
:100DC0004613BA01A9014150510961097109C130A5
:100DD00089F680918100887F8160809381005093A3
:100DE0008900409388008FEF9FEFDC0180936001C2
:100DF00090936101A0936201B093630180916F00B1
:100E0000826080936F00D1CE4093B3008FEF9FEF4D
:100E1000DC0180935C0190935D01A0935E01B0932F
:100E20005F0180917000826080937000BECE3FB7FA
:100E3000F89480913F0190914001A0914101B091BF
:100E4000420126B5A89B05C02F3F19F00196A11DB0
:100E5000B11D3FBFBA2FA92F982F8827BC01CD0104
:100E6000620F711D811D911D42E0660F771F881F63
:100E7000991F4A95D1F708958F929F92AF92BF9292
:100E8000CF92DF92EF92FF924B015C010E94170715
:100E90006B017C010E9417076C197D098E099F095F
:100EA000683E734081059105A8F321E0821A9108FC
:100EB000A108B10888EEC80E83E0D81EE11CF11C21
:100EC00081149104A104B10429F7FF90EF90DF9001
:100ED000CF90BF90AF909F908F900895BC016E5FB0
:100EE0007F4FDC01ED91FC910190F081E02D40E01D
:100EF000099591E0811190E0892F089508958EBDA4
:100F000000000DB407FEFDCF8EB50895DF92EF927D
:100F1000FF920F931F93CF93DF937C01062FD42E64
:100F2000152F80E590E00E94490360E0F701868577
:100F30000E94320582E10E947F07CD2DD12F0C0F38
:100F40001D2F111DC017D10721F089910E947F0725
:100F5000F9CF61E0F7018685DF91CF911F910F9165
:100F6000FF90EF90DF900C9432051F93CF93DF93A7
:100F7000EC01162F80E590E00E94490360E08E8529
:100F80000E943205812F80680E947F0780E00E94C6
:100F90007F07182F61E08E850E943205812FDF9137
:100FA000CF911F9108950F931F93CF93DF93EC017F
:100FB000062F142F80E590E00E94490360E08E85A3
:100FC0000E943205802F0E947F07812F0E947F0799
:100FD00061E08E85DF91CF911F910F910C943205C6
:100FE000CF92DF92EF92FF920F931F93CF93DF93F5
:100FF000EC016B01142F790140E062E00E94D307FD
:1010000044E06AE0CE010E94D30740E864E1CE01EB
:101010000E94D307A601612FCE010E94860743E0FC
:1010200062E0CE010E94D30708E813E16AE0CE0136
:101030000E94B50782FF1BC040E062E0CE010E9423
:10104000D30764E4CE010E94B507F701808362E410
:10105000CE010E94B507F701818380E0DF91CF9137
:101060001F910F91FF90EF90DF90CF900895015066
:101070001109E1F683E0F2CF3F924F925F926F92B7
:101080007F928F929F92AF92BF92CF92DF92EF9218
:10109000FF920F931F93CF93DF9300D0CDB7DEB7AE
:1010A0004C012B01D42E390180E0E114F10411F040
:1010B000F7018081BC2CB29490EFB922B80E40E0C9
:1010C00062E0C4010E94D3074FE768E0C4010E94B8
:1010D000D30740E864E1C4010E94D307A2016D2D4B
:1010E000C4010E9486074B2D6AE1C4010E94D30708
:1010F0004CE062E0C4010E94D3076AE1C4010E948F
:10110000B507482F40686AE1C4010E94D30720ED6B
:10111000422E27E0522E68E0C4010E94B507982FA6
:10112000907309F0B6C080FD04C0F1E04F1A510879
:1011300091F783E094C06114710409F46DC0011546
:10114000110509F469C064E1C4010E94B507B82E15
:10115000F80180818B1508F496C0B082BB20E1F1C4
:1011600080E590E00E94490360E0F40186850E94DA
:101170003205BA9482E90E947F07CC20B1F08FEF4C
:1011800090E09C0102C0220F331FCA94E2F769016C
:1011900082E90E947F079C2D9095F3012081922384
:1011A0008C21982B9083CC24C39423014C0C511C8C
:1011B000CB1440F482E90E947F07F20181932F0152
:1011C000C394F6CF80E00E947F07F201808361E044
:1011D000F40186850E94320568E1C4010E94B507CA
:1011E0008770E114F10411F0F701808333FC4DC0E6
:1011F0006114710409F44BC00115110509F447C0CD
:10120000AA2009F444C0F8014081413039F4843007
:1012100009F049C08FEF23C080E0E8CF423008F4E6
:1012200042C0811140C042509E012F5F3F4FB30129
:10123000C4010E94F007811112C0F8019081690E6B
:10124000711CF30132972081998129132CC0F1E0A0
:101250006F1A7108F30120819A81291324C00F901D
:101260000F90DF91CF911F910F91FF90EF90DF9042
:10127000CF90BF90AF909F908F907F906F905F9036
:101280004F903F90089584E0EACF82E0E8CF80E07D
:10129000E6CF6CE0C4010E94B507382E837109F4D3
:1012A0004ACF81E0DCCF87E0DACF8F929F92AF9276
:1012B000CF92EF92FF920F931F93CF93DF9300D0C3
:1012C00000D01F92CDB7DEB74C0182E08D8340E0A5
:1012D00064E2C4010E94D30740E066E2C4010E94B8
:1012E000D30746E268E4C4010E94D30786E28B83F9
:1012F0008D818230D8F16CE1C4010E94B507482F7E
:101300004F776CE1C4010E94D30787E08C83A12C46
:10131000C12CCE0104967C018E010B5F1F4F9E01F4
:101320002F5F3F4F41E0BE016D5F7F4FC4010E94C0
:101330003C08982F811117C08D818230B9F48C81BF
:10134000811114C081E00F900F900F900F900F90BB
:10135000DF91CF911F910F91FF90EF90CF90AF90C1
:101360009F908F90089581E0923069F380E0EBCFF9
:101370002F923F924F925F926F927F928F929F92A5
:10138000AF92BF92CF92DF92EF92FF920F931F9393
:10139000CF93DF93CDB7DEB72D970FB6F894DEBFAE
:1013A0000FBECDBF16E0413508F04AC1342E3B01D7
:1013B0004C016CE10E94B507482F4F776CE1C401E6
:1013C0000E94D30783E98983332029F081E0F30168
:1013D0009081953008F480E022242394B12C9B2D39
:1013E000990F990F990FD32CD91AD7FCD12C32E031
:1013F000882319F098E89B8333E021E09D2D9770B6
:1014000009F420E09D2D959595959595290FC9F0A6
:1014100094E0811193E0291708F4922FEB2DF0E06E
:101420003196E60DF71D232F4191A1E0B0E0AC0FFE
:10143000BD1FA20FB11D4C932F5F422F431B4917B5
:1014400098F3882311F0F8E0DF0E8FE18D150CF092
:1014500082C090E79A838B819C8189279D8189270F
:101460009E8189278F839E01285F3F4F47E0BE0101
:101470006F5F7F4FC4010E94F007182F8111E0C0F9
:101480001A86E3E0EB87DC86CE0107962C0199E013
:101490009D87CA844C2D4295407F4C0D6AE1C40162
:1014A0000E94D307A12CCE010A967C018E01055F14
:1014B0001F4F92014D85BE016F5F7F4FC4010E9497
:1014C0003C08182F823009F065C06CE1C4010E940D
:1014D000B50785FDB5C08F7109F480E2282F30E093
:1014E0004D2DDD0C550B421753070CF09DC0D82E27
:1014F000E82FE595E595E595EF5F982F977081E0EA
:1015000009F480E0E80F81E090E08C0F9D1F8E0FC2
:10151000911DFC01215031092770332781E090E0B3
:1015200002C0880F991F2A95E2F79C018081822BC7
:1015300080838BCF85E98983332031F081E0F3010B
:101540009081983008F04BCF80E049CF87E98983BC
:1015500026E0B22EF9CF9D2D97709A878D2D859517
:10156000859585958E5F282F2295207F290F2A83C8
:1015700021E0911101C020E0280F2D8744244394DD
:10158000512C4C0E5D1E480E511CE9E0E81BEB8708
:10159000DC867FCF811154C080E2D82E9C859032AA
:1015A0000CF457CF8B81883809F040C083E093E07A
:1015B000EB2DF0E03196E60DF71D980FA1E0B0E0BD
:1015C000AC0FBD1FA80FB11D2C9121938F5F891304
:1015D000F5CFBB84E3E0BE124DC08A8581114AC0BD
:1015E0009E012D5F3F4F41E0B201C4010E94F00710
:1015F000182F811125C09B81F201818198133CC075
:101600009C818281981338C0808182FF12C023940C
:10161000F2E02F1609F48ECF83E0281609F496CF56
:1016200091E0291609F4CECE15E00AC082E094E0DC
:10163000BFCFF3018387822D880F820D8F5F808358
:10164000812F2D960FB6F894DEBF0FBECDBFDF9170
:10165000CF911F910F91FF90EF90DF90CF90BF90AF
:10166000AF909F908F907F906F905F904F903F9042
:101670002F90089511E0E4CF17E0E2CF61E085E01C
:101680000E94320561E087E00E94320561E086E059
:101690000E94320568EC70E080E090E00E943C0718
:1016A00060E087E00E94320568EC70E080E090E046
:1016B0000E943C0761E087E00E94320568EC70E020
:1016C00080E090E00E943C0760E087E00E943205E5
:1016D00068EC70E080E090E00E943C0761E087E009
:1016E0000E94320568EC70E080E090E00E943C07C8
:1016F00060E087E00E94320568EC70E080E090E0F6
:101700000C943C0761E087E00E94320560E086E0CF
:101710000E94320561E085E00E94320568EC70E0CD
:1017200080E090E00E943C0761E087E00E94320583
:1017300061E086E00E94320560E085E00E943205AB
:1017400068EC70E080E090E00E943C0760E087E099
:101750000E94320561E086E00E94320561E085E08A
:101760000E94320568EC70E080E090E00E943C0747
:1017700084E991E10E94C80564E670E080E090E0B1
:101780000E943C0782E10E94600584E991E10E9489
:10179000C80564E670E080E090E00E943C0782E1CA
:1017A0000C946005FC0101900020E9F73197AF012E
:1017B000481B590BBC0188E691E00C946703CF935A
:1017C000DF930E945404EC018DE191E00E94D20B62
:1017D0008C0F9D1FDF91CF9108958F929F92AF92B2
:1017E000BF920F931F93CF93DF93CDB7DEB7A1972F
:1017F0000FB6F894DEBF0FBECDBF19A2423008F479
:101800004AE08E010F5D1F4F842E912CB12CA12C2C
:10181000A50194010E942413E62FB901CA01EA3000
:10182000F4F4E05DD801EE938D01232B242B252BBE
:1018300079F790E080E0109719F0CD010E94D20B6B
:10184000A1960FB6F894DEBF0FBECDBFDF91CF914A
:101850001F910F91BF90AF909F908F900895E95C7A
:10186000E1CFCF93DF930E94D20BEC018DE191E0A9
:101870000E94D20B8C0F9D1FDF91CF910895AF92E4
:10188000CF92DF92EF92FF920F931F93CF93DF934C
:1018900000D000D0CDB7DEB785E092E00E945509B8
:1018A00081110FC080E00F900F900F900F90DF918B
:1018B000CF911F910F91FF90EF90DF90CF90AF905D
:1018C000089585E092E00E946E07882359F388E628
:1018D00090E00E94DF0B08E012E082E5C82E81E074
:1018E000D82E96E5E92E91E0F92EF80161918F014D
:1018F000F60161936F0170E090E080E040E10E94AA
:10190000ED0BEC14FD0489F78FE191E00E94310C9E
:1019100080E589831A829E012D5F3F4F42E0BE0120
:101920006F5F7F4F85E092E00E94F007811110C049
:10193000A12CC12CF12CE12C10E000E030E020E0E3
:1019400044E0BE016F5F7F4F85E092E00E943C085B
:1019500081E0A9CF0C9416130C940E130F931F93D0
:10196000CF93DF93880F880F8E5F0EE411E0C82FAE
:10197000D0E0CE54D140CE01800F911F0E94AC0C1C
:10198000F80181938F01F1E002351F07A1F7DF9184
:10199000CF911F910F910895CF93DF9390E080E056
:1019A0000E94AC0CD82FC1E0DC1758F08C2F0E949D
:1019B000AE0C8EE491E00E944C03811103C0CF5F16
:1019C000F3CF80E0DF91CF9108951F920F920FB671
:1019D0000F9211242F933F934F935F936F937F93B5
:1019E0008F939F93AF93BF93EF93FF9380915C018D
:1019F00090915D01A0915E01B0915F01892B8A2BCE
:101A00008B2BD1F190915701E0915801F091590140
:101A100080818927808380915C0190915D01A091F4
:101A20005E01B0915F01181619061A061B069CF498
:101A300080915C0190915D01A0915E01B0915F0188
:101A40000197A109B10980935C0190935D01A09376
:101A50005E01B0935F01FF91EF91BF91AF919F91B4
:101A60008F917F916F915F914F913F912F910F9047
:101A70000FBE0F901F901895809100010E94600585
:101A8000EACF1F920F920FB60F9211242F933F931C
:101A90004F935F936F937F938F939F93AF93BF9376
:101AA000EF93FF9388E691E00E94E503FF91EF91A9
:101AB000BF91AF919F918F917F916F915F914F9166
:101AC0003F912F910F900FBE0F901F9018951F926E
:101AD0000F920FB60F9211242F938F939F93EF9332
:101AE000FF93E0917801F09179018081E0917E018E
:101AF000F0917F0182FD1BC09081809181018F5FF9
:101B00008F7320918201821741F0E0918101F0E012
:101B1000E859FE4F958F80938101FF91EF919F913E
:101B20008F912F910F900FBE0F901F90189580816D
:101B3000F4CF1F920F920FB60F9211242F933F9361
:101B40008F939F93AF93BF9380914A0190914B01E4
:101B5000A0914C01B0914D0130913E0123E0230F43
:101B60002D3758F50196A11DB11D20933E0180939C
:101B70004A0190934B01A0934C01B0934D01809189
:101B80003F0190914001A0914101B0914201019625
:101B9000A11DB11D80933F0190934001A09341018D
:101BA000B0934201BF91AF919F918F913F912F913F
:101BB0000F900FBE0F901F90189526E8230F0296E6
:101BC000A11DB11DD2CFE8E6F1E01382128288EEAA
:101BD00093E0A0E0B0E084839583A683B78385E09B
:101BE00091E09183808385EC90E09587848784ECF5
:101BF00090E09787868780EC90E0918B808B81ECDA
:101C000090E0938B828B82EC90E0958B848B86ECBA
:101C100090E0978B868B118E128E138E148EE5E0DA
:101C2000F2E087E191E0918380838AE0868789E012
:101C300087870895789484B5826084BD84B5816077
:101C400084BD85B5826085BD85B5816085BD809187
:101C50006E00816080936E001092810080918100FF
:101C600082608093810080918100816080938100F7
:101C7000809180008160809380008091B1008460B9
:101C80008093B1008091B00081608093B00080911A
:101C90007A00846080937A0080917A0082608093D9
:101CA0007A0080917A00816080937A0080917A0036
:101CB000806880937A001092C10061E082E10E9406
:101CC0008C0561E087E00E948C0561E086E00E945F
:101CD0008C0561E085E00E948C0562E084E00E9452
:101CE0008C0561E083E00E948C0561E083E00E9446
:101CF000320561E087E00E94320561E086E00E94E3
:101D0000320561E085E00E943205E0917801F091B2
:101D1000790182E08083E0917401F0917501108275
:101D2000E0917601F09177018FEC80831092800131
:101D3000E0917C01F0917D0186E08083E0917A0161
:101D4000F0917B01808180618083E0917A01F09144
:101D50007B01808188608083E0917A01F0917B0132
:101D6000808180688083E0917A01F0917B0180819D
:101D70008F7D8083CFB7F89480914301811127C074
:101D8000E1E3F6E08491E3E1F6E09491E82FF0E0FE
:101D9000EE0FFF1FE656FF4FA591B491EC91E9239A
:101DA00021F461E08AE00E94320561E08AE00E944D
:101DB0008C058CB580618CBD8CB580648CBD61E078
:101DC0008DE00E948C0561E08BE00E948C05809183
:101DD00043018F5F80934301CFBF61E08091130285
:101DE0000E948C0561E0809113020E94320580916F
:101DF00014028F3F09F4A6C060E00E948C05809118
:101E000014020E94B804892B09F09CC061E0809103
:101E100014020E948C0560E0809114020E94320539
:101E200083E090E00197F1F761E0809114020E9455
:101E3000320562E370E080E090E00E943C0740E001
:101E400064E285E092E00E94D30740E066E285E02C
:101E500092E00E94D30746E268E485E092E00E94A7
:101E6000D30740E864E585E092E00E94D30749EAA1
:101E700066E585E092E00E94D30743E068E585E0EF
:101E800092E00E94D30748EE6AE585E092E00E9466
:101E9000D30740E46AE285E092E00E94D3074DE375
:101EA00062E285E092E00E94D30768E285E092E07A
:101EB0000E94B507982F9370933039F0482F4360F4
:101EC00068E285E092E00E94D3078EEB92E00E94E8
:101ED000DF0B6EE685E092E00E94B507C82F8EE327
:101EE00091E00E9454046C2F70E090E080E040E1AB
:101EF0000E94ED0B86E391E0C13931F08EE291E072
:101F0000C23911F089E091E00E9454048FE191E020
:101F10000E94310CC150CE3F60F186EC90E00E94EF
:101F2000DF0B84EA90E00E94DF0B61E086E00E9414
:101F3000320561E085E00E94320560E087E00E94A2
:101F40003205FFCF4FE062E085E092E00E94D307C8
:101F5000C3E062E370E080E090E00E943C0762E052
:101F600085E092E00E94B50784FF69CFC15089F7F0
:101F700066CF84E00E94B804892B09F065C060E058
:101F800087E00E9432058AEA92E00E94DF0B8CE82B
:101F900092E00E94DF0B87E592E00E94DF0B0E9437
:101FA000E104882309F448C084E00E94B804892B26
:101FB00009F042C080E492E00E94DF0B10E000E0F4
:101FC000C8010E94AC0C882321F060E0C8010E9487
:101FD000AA0C0F5F1F4F011584E0180789F785E1F0
:101FE00092E00E94DF0B61E087E00E94320564E628
:101FF00070E080E090E00E943C0760E087E00E9493
:10200000320564E670E080E090E00E943C0761E009
:1020100087E00E94320564E670E080E090E00E9474
:102020003C0760E087E00E94320564E670E080E0F3
:1020300090E00E943C0704C08FE292E00E94DF0B18
:1020400061E087E00E94320581E090E00E94AC0CE4
:102050008F38E9F18EEF91E00E94DF0B89ED91E07E
:102060000E94DF0B0E943F0CC82F8093490160E063
:1020700085E00E94320564E670E080E090E00E9416
:102080003C0761E085E00E94320564E670E080E094
:1020900090E00E943C07CC2329F342E5E42E41E086
:1020A000F42E02E010E0F70161917F01C8010E9467
:1020B000AA0C0F5F1F4F06301105A9F76FE881E0EA
:1020C00090E00E94AA0C85EC91E00E94DF0B81EB6E
:1020D00091E00E94DF0B8FE991E00E94DF0B34E476
:1020E000E32E31E0F32E02E010E0C8010E94AC0CB8
:1020F000F70181937F01682F70E090E080E040E17C
:102100000E94ED0B0F5F1F4F0630110571F78FE135
:1021100091E00E94310C8BE891E00E94DF0B87E791
:1021200091E00E94DF0B8BE591E00E94DF0B0E94A3
:10213000820B20E0E22E20E0F22E0E943F0C8093E2
:10214000490184E00E94B804892B79F560E087E0BA
:102150000E94320561E086E00E94320561E085E080
:102160000E94320585EF95E00E94DF0B8BEC95E035
:102170000E94DF0B0E94E104882399F084E00E9412
:10218000B804892B71F460E081E090E00E94AA0C11
:102190008CEA95E00E94DF0B85E895E00E94DF0B5A
:1021A000FFCF89E695E00E94DF0B809148018823EC
:1021B00061F10E94820B80914901882309F4BDCF0F
:1021C00080914801882309F4A0C184E491E00E9431
:1021D0004C03882359F185E595E00E94DF0B80E4EC
:1021E00095E00E94DF0B82E295E00E94DF0B1092E7
:1021F0004801E114F10409F4A0CF0E94D10388231F
:1022000009F49BCF0E94000098CF60E085E00E9417
:10221000320561E087E00E94320561E086E00E94BD
:10222000320561E083E00E943205C5CF0E94CC0CEC
:10223000882309F4CCC084E095E00E94DF0B0E9463
:10224000CC0C811111C00E943E0B84E093E00E94EF
:10225000DF0BCD2F80E291E00E94310C8DED94E0F8
:102260000E94DF0BDC2FC5CF90E080E00E94AC0C19
:10227000182FC1E01C1758F08C2F0E94AE0C8EE472
:1022800091E00E944C03811103C0CF5FF3CFCD2FAB
:102290000C2F000F000F92E0D92ED00E012F0C1B37
:1022A000D02FDD0FDD0F6FEF610F90E080E00E9417
:1022B000AA0C912C812C0D2D10E05801F4E0AF0EEA
:1022C000B11C6801C80CD91C8D1668F4C501880DB5
:1022D000991D0E94AC0C682FC6010E94AA0C8FEFBA
:1022E000881A980AEECF0D0F111DD12CC12C60E079
:1022F000C8018C0D9D1D0E94AA0CEFEFCE1ADE0ABC
:10230000F4E0CF16D10499F761E085E00E94320530
:1023100061E087E00E94320561E086E00E943205BC
:1023200068EC70E080E090E00E943C0760E085E0AF
:102330000E94320568EC70E080E090E00E943C076B
:1023400061E085E00E94320568EC70E080E090E09A
:102350000E943C0760E085E00E94320568EC70E076
:1023600080E090E00E943C0761E085E00E94320539
:1023700068EC70E080E090E00E943C0760E085E05F
:102380000E94320568EC70E080E090E00E943C071B
:102390008AED92E00E94DF0B88EB9BE00E94C8056B
:1023A00068EC70E080E090E00E943C0782E10E94CF
:1023B000600584EF91E00E94C8056CE271E080E066
:1023C00090E00E943C0782E10E94600543CF8AEBC7
:1023D00094E00E94DF0B0E94CC0C81118FC090E032
:1023E00080E00E94AC0C082F000F000F0A5F61E034
:1023F000680F90E080E00E94AA0C82E5A82E81E0A0
:10240000B82ED12CC12C10E0F50161915F01C801FB
:102410008C0D9D1D0E94AA0CFFEFCF1ADF0A84E0ED
:10242000C816D10489F761E085E00E94320561E0B9
:1024300087E00E94320561E086E00E94320568EC88
:1024400070E080E090E00E943C0760E086E00E943F
:10245000320568EC70E080E090E00E943C0761E0AB
:1024600086E00E94320568EC70E080E090E00E9417
:102470003C0760E086E00E94320568EC70E080E096
:1024800090E00E943C0761E086E00E94320568EC23
:1024900070E080E090E00E943C0760E086E00E94EF
:1024A000320568EC70E080E090E00E943C078BE32E
:1024B00093E00E94DF0B84EF91E00E94C8056CE27C
:1024C00071E080E090E00E943C0782E10E9460059C
:1024D00088EB9BE00E94C8056CE271E080E090E030
:1024E0000E943C0782E10E9460058CE994E00E9412
:1024F000DF0B85E794E00E94DF0B7BCE0E943E0B52
:1025000081E693E00E94DF0BF0CF84E491E00E942B
:102510004C03811144C00E94CC0C882309F469C08B
:102520008BEA93E00E94DF0B61E085E00E943205B8
:1025300061E087E00E94320560E086E00E9432059B
:1025400084E991E10E94C80568EC70E080E090E0C9
:102550000E943C0782E10E94600584E991E10E94AB
:10256000C80564E670E080E090E00E943C0782E1EC
:102570000E94600560E083E00E94320564EF71E034
:1025800080E090E00E943C0761E083E00E94320519
:1025900064EF71E080E090E00E943C072ACE81E089
:1025A0008093480181E594E00E94DF0B90E080E099
:1025B0000E94AC0CC82F89E494E00E9454046C2F54
:1025C00070E090E080E04AE00E94ED0B84E394E04C
:1025D0000E9454048FE191E00E94310C8DE094E060
:1025E0000E94DF0B81EE93E00E94DF0B83EC93E00F
:1025F00082CF88E993E00E94DF0B61E086E00E94D1
:10260000320561E085E00E94320560E087E00E94CB
:10261000320568EE73E080E090E0BECFF999FECF1E
:1026200092BD81BDF89A992780B50895262FF99912
:10263000FECF1FBA92BD81BD20BD0FB6F894FA9AA5
:10264000F99A0FBE01960895A1E21A2EAA1BBB1B90
:10265000FD010DC0AA1FBB1FEE1FFF1FA217B3076E
:10266000E407F50720F0A21BB30BE40BF50B661F84
:10267000771F881F991F1A9469F760957095809548
:1026800090959B01AC01BD01CF010895052E97FBEC
:102690001EF400940E945D1357FD07D00E9424137E
:1026A00007FC03D04EF40C945D1350954095309583
:1026B00021953F4F4F4F5F4F0895909580957095AE
:1026C00061957F4F8F4F9F4F0895EE0FFF1F05902D
:0A26D000F491E02D0994F894FFCF77
:1026DA00FF000000000704670394036F04C503A307
:1026EA0003B70300000000B80955096E070D0A0078
:1026FA002D2D2D2D2D2D2D2D2D2D2D2D2D2D2D2D00
:0E270A002D2D2D2D2D2D2D2D2D2D2D2D2D0078
:00000001FF
